{
  "_format": "hh-sol-artifact-1",
  "contractName": "OptimisticSOXAccount",
  "sourceName": "contracts/OptimisticSOXAccount.sol",
  "abi": [
    {
      "inputs": [
        {
          "internalType": "address",
          "name": "_entryPoint",
          "type": "address"
        },
        {
          "internalType": "address",
          "name": "_vendor",
          "type": "address"
        },
        {
          "internalType": "address",
          "name": "_buyer",
          "type": "address"
        },
        {
          "internalType": "uint256",
          "name": "_agreedPrice",
          "type": "uint256"
        },
        {
          "internalType": "uint256",
          "name": "_completionTip",
          "type": "uint256"
        },
        {
          "internalType": "uint256",
          "name": "_disputeTip",
          "type": "uint256"
        },
        {
          "internalType": "uint256",
          "name": "_timeoutIncrement",
          "type": "uint256"
        },
        {
          "internalType": "bytes32",
          "name": "_commitment",
          "type": "bytes32"
        },
        {
          "internalType": "uint32",
          "name": "_numBlocks",
          "type": "uint32"
        },
        {
          "internalType": "uint32",
          "name": "_numGates",
          "type": "uint32"
        },
        {
          "internalType": "address",
          "name": "_vendorSigner",
          "type": "address"
        }
      ],
      "stateMutability": "payable",
      "type": "constructor"
    },
    {
      "anonymous": false,
      "inputs": [
        {
          "indexed": true,
          "internalType": "address",
          "name": "buyer",
          "type": "address"
        },
        {
          "indexed": true,
          "internalType": "address",
          "name": "buyerDisputeSponsor",
          "type": "address"
        },
        {
          "indexed": false,
          "internalType": "uint256",
          "name": "amount",
          "type": "uint256"
        }
      ],
      "name": "BuyerDisputeSponsoredWithAuthorization",
      "type": "event"
    },
    {
      "anonymous": false,
      "inputs": [
        {
          "indexed": true,
          "internalType": "address",
          "name": "buyer",
          "type": "address"
        },
        {
          "indexed": false,
          "internalType": "uint256",
          "name": "amount",
          "type": "uint256"
        }
      ],
      "name": "BuyerSelfSponsoredDispute",
      "type": "event"
    },
    {
      "anonymous": false,
      "inputs": [
        {
          "indexed": true,
          "internalType": "address",
          "name": "from",
          "type": "address"
        },
        {
          "indexed": false,
          "internalType": "uint256",
          "name": "amount",
          "type": "uint256"
        }
      ],
      "name": "EntryPointDeposit",
      "type": "event"
    },
    {
      "anonymous": false,
      "inputs": [
        {
          "indexed": true,
          "internalType": "address",
          "name": "to",
          "type": "address"
        },
        {
          "indexed": false,
          "internalType": "uint256",
          "name": "amount",
          "type": "uint256"
        }
      ],
      "name": "EntryPointWithdrawal",
      "type": "event"
    },
    {
      "anonymous": false,
      "inputs": [
        {
          "indexed": true,
          "internalType": "bytes32",
          "name": "descriptionHash",
          "type": "bytes32"
        },
        {
          "indexed": false,
          "internalType": "uint64",
          "name": "plaintextLength",
          "type": "uint64"
        },
        {
          "indexed": false,
          "internalType": "bytes16",
          "name": "ciphertextIv",
          "type": "bytes16"
        },
        {
          "indexed": false,
          "internalType": "uint32",
          "name": "numGates",
          "type": "uint32"
        }
      ],
      "name": "HardcodedSha256CircuitConfigured",
      "type": "event"
    },
    {
      "anonymous": false,
      "inputs": [
        {
          "indexed": true,
          "internalType": "address",
          "name": "vendor",
          "type": "address"
        },
        {
          "indexed": false,
          "internalType": "uint256",
          "name": "amount",
          "type": "uint256"
        },
        {
          "indexed": false,
          "internalType": "address",
          "name": "disputeContract",
          "type": "address"
        }
      ],
      "name": "VendorSelfSponsoredDispute",
      "type": "event"
    },
    {
      "anonymous": false,
      "inputs": [
        {
          "indexed": true,
          "internalType": "address",
          "name": "previousSigner",
          "type": "address"
        },
        {
          "indexed": true,
          "internalType": "address",
          "name": "newSigner",
          "type": "address"
        }
      ],
      "name": "VendorSignerUpdated",
      "type": "event"
    },
    {
      "inputs": [],
      "name": "agreedPrice",
      "outputs": [
        {
          "internalType": "uint256",
          "name": "",
          "type": "uint256"
        }
      ],
      "stateMutability": "view",
      "type": "function"
    },
    {
      "inputs": [],
      "name": "buyer",
      "outputs": [
        {
          "internalType": "address",
          "name": "",
          "type": "address"
        }
      ],
      "stateMutability": "view",
      "type": "function"
    },
    {
      "inputs": [],
      "name": "buyerDeposit",
      "outputs": [
        {
          "internalType": "uint256",
          "name": "",
          "type": "uint256"
        }
      ],
      "stateMutability": "view",
      "type": "function"
    },
    {
      "inputs": [],
      "name": "buyerDisputeSponsor",
      "outputs": [
        {
          "internalType": "address",
          "name": "",
          "type": "address"
        }
      ],
      "stateMutability": "view",
      "type": "function"
    },
    {
      "inputs": [
        {
          "internalType": "address",
          "name": "_buyerDisputeSponsor",
          "type": "address"
        }
      ],
      "name": "buyerUnhappyAuthorizationHash",
      "outputs": [
        {
          "internalType": "bytes32",
          "name": "",
          "type": "bytes32"
        }
      ],
      "stateMutability": "view",
      "type": "function"
    },
    {
      "inputs": [],
      "name": "cancelTransaction",
      "outputs": [],
      "stateMutability": "nonpayable",
      "type": "function"
    },
    {
      "inputs": [],
      "name": "circuitVersion",
      "outputs": [
        {
          "internalType": "uint32",
          "name": "",
          "type": "uint32"
        }
      ],
      "stateMutability": "view",
      "type": "function"
    },
    {
      "inputs": [],
      "name": "commitment",
      "outputs": [
        {
          "internalType": "bytes32",
          "name": "",
          "type": "bytes32"
        }
      ],
      "stateMutability": "view",
      "type": "function"
    },
    {
      "inputs": [],
      "name": "completeTransaction",
      "outputs": [],
      "stateMutability": "nonpayable",
      "type": "function"
    },
    {
      "inputs": [],
      "name": "completionTip",
      "outputs": [
        {
          "internalType": "uint256",
          "name": "",
          "type": "uint256"
        }
      ],
      "stateMutability": "view",
      "type": "function"
    },
    {
      "inputs": [
        {
          "internalType": "bytes32",
          "name": "_descriptionHash",
          "type": "bytes32"
        },
        {
          "internalType": "uint64",
          "name": "_plaintextLength",
          "type": "uint64"
        },
        {
          "internalType": "bytes16",
          "name": "_ciphertextIv",
          "type": "bytes16"
        }
      ],
      "name": "configureHardcodedSha256Circuit",
      "outputs": [],
      "stateMutability": "nonpayable",
      "type": "function"
    },
    {
      "inputs": [],
      "name": "currState",
      "outputs": [
        {
          "internalType": "enum OptimisticState",
          "name": "",
          "type": "uint8"
        }
      ],
      "stateMutability": "view",
      "type": "function"
    },
    {
      "inputs": [],
      "name": "depositToEntryPoint",
      "outputs": [],
      "stateMutability": "payable",
      "type": "function"
    },
    {
      "inputs": [],
      "name": "disputeContract",
      "outputs": [
        {
          "internalType": "address",
          "name": "",
          "type": "address"
        }
      ],
      "stateMutability": "view",
      "type": "function"
    },
    {
      "inputs": [],
      "name": "disputeTip",
      "outputs": [
        {
          "internalType": "uint256",
          "name": "",
          "type": "uint256"
        }
      ],
      "stateMutability": "view",
      "type": "function"
    },
    {
      "inputs": [],
      "name": "endDispute",
      "outputs": [],
      "stateMutability": "nonpayable",
      "type": "function"
    },
    {
      "inputs": [],
      "name": "entryPoint",
      "outputs": [
        {
          "internalType": "contract IEntryPoint",
          "name": "",
          "type": "address"
        }
      ],
      "stateMutability": "view",
      "type": "function"
    },
    {
      "inputs": [
        {
          "internalType": "address",
          "name": "_target",
          "type": "address"
        },
        {
          "internalType": "uint256",
          "name": "_value",
          "type": "uint256"
        },
        {
          "internalType": "bytes",
          "name": "_data",
          "type": "bytes"
        }
      ],
      "name": "execute",
      "outputs": [],
      "stateMutability": "nonpayable",
      "type": "function"
    },
    {
      "inputs": [
        {
          "internalType": "address[]",
          "name": "_targets",
          "type": "address[]"
        },
        {
          "internalType": "uint256[]",
          "name": "_values",
          "type": "uint256[]"
        },
        {
          "internalType": "bytes[]",
          "name": "_calldata",
          "type": "bytes[]"
        }
      ],
      "name": "executeBatch",
      "outputs": [],
      "stateMutability": "nonpayable",
      "type": "function"
    },
    {
      "inputs": [
        {
          "internalType": "uint64",
          "name": "_plaintextLength",
          "type": "uint64"
        }
      ],
      "name": "expectedHardcodedSha256NumBlocks",
      "outputs": [
        {
          "internalType": "uint32",
          "name": "",
          "type": "uint32"
        }
      ],
      "stateMutability": "pure",
      "type": "function"
    },
    {
      "inputs": [
        {
          "internalType": "uint64",
          "name": "_plaintextLength",
          "type": "uint64"
        }
      ],
      "name": "expectedHardcodedSha256NumGates",
      "outputs": [
        {
          "internalType": "uint32",
          "name": "",
          "type": "uint32"
        }
      ],
      "stateMutability": "pure",
      "type": "function"
    },
    {
      "inputs": [],
      "name": "getDeposit",
      "outputs": [
        {
          "internalType": "uint256",
          "name": "",
          "type": "uint256"
        }
      ],
      "stateMutability": "view",
      "type": "function"
    },
    {
      "inputs": [],
      "name": "hardcodedCiphertextIv",
      "outputs": [
        {
          "internalType": "bytes16",
          "name": "",
          "type": "bytes16"
        }
      ],
      "stateMutability": "view",
      "type": "function"
    },
    {
      "inputs": [],
      "name": "hardcodedDescriptionHash",
      "outputs": [
        {
          "internalType": "bytes32",
          "name": "",
          "type": "bytes32"
        }
      ],
      "stateMutability": "view",
      "type": "function"
    },
    {
      "inputs": [],
      "name": "hardcodedPlaintextLength",
      "outputs": [
        {
          "internalType": "uint64",
          "name": "",
          "type": "uint64"
        }
      ],
      "stateMutability": "view",
      "type": "function"
    },
    {
      "inputs": [],
      "name": "hardcodedSha256Circuit",
      "outputs": [
        {
          "internalType": "bool",
          "name": "",
          "type": "bool"
        }
      ],
      "stateMutability": "view",
      "type": "function"
    },
    {
      "inputs": [],
      "name": "key",
      "outputs": [
        {
          "internalType": "bytes16",
          "name": "",
          "type": "bytes16"
        }
      ],
      "stateMutability": "view",
      "type": "function"
    },
    {
      "inputs": [],
      "name": "nextTimeoutTime",
      "outputs": [
        {
          "internalType": "uint256",
          "name": "",
          "type": "uint256"
        }
      ],
      "stateMutability": "view",
      "type": "function"
    },
    {
      "inputs": [],
      "name": "noSponsorDeposit",
      "outputs": [
        {
          "internalType": "bool",
          "name": "",
          "type": "bool"
        }
      ],
      "stateMutability": "view",
      "type": "function"
    },
    {
      "inputs": [],
      "name": "nonce",
      "outputs": [
        {
          "internalType": "uint256",
          "name": "",
          "type": "uint256"
        }
      ],
      "stateMutability": "view",
      "type": "function"
    },
    {
      "inputs": [],
      "name": "numBlocks",
      "outputs": [
        {
          "internalType": "uint32",
          "name": "",
          "type": "uint32"
        }
      ],
      "stateMutability": "view",
      "type": "function"
    },
    {
      "inputs": [],
      "name": "numGates",
      "outputs": [
        {
          "internalType": "uint32",
          "name": "",
          "type": "uint32"
        }
      ],
      "stateMutability": "view",
      "type": "function"
    },
    {
      "inputs": [],
      "name": "preContractVariant",
      "outputs": [
        {
          "internalType": "enum PreContractVariant",
          "name": "",
          "type": "uint8"
        }
      ],
      "stateMutability": "view",
      "type": "function"
    },
    {
      "inputs": [],
      "name": "sbDeposit",
      "outputs": [
        {
          "internalType": "uint256",
          "name": "",
          "type": "uint256"
        }
      ],
      "stateMutability": "view",
      "type": "function"
    },
    {
      "inputs": [],
      "name": "sbTip",
      "outputs": [
        {
          "internalType": "uint256",
          "name": "",
          "type": "uint256"
        }
      ],
      "stateMutability": "view",
      "type": "function"
    },
    {
      "inputs": [],
      "name": "sendBuyerDisputeSponsorFee",
      "outputs": [],
      "stateMutability": "payable",
      "type": "function"
    },
    {
      "inputs": [
        {
          "internalType": "bytes",
          "name": "_buyerAuthorization",
          "type": "bytes"
        }
      ],
      "name": "sendBuyerDisputeSponsorFeeWithAuthorization",
      "outputs": [],
      "stateMutability": "payable",
      "type": "function"
    },
    {
      "inputs": [],
      "name": "sendBuyerSelfDisputeSponsorFee",
      "outputs": [],
      "stateMutability": "payable",
      "type": "function"
    },
    {
      "inputs": [
        {
          "internalType": "bytes16",
          "name": "_key",
          "type": "bytes16"
        }
      ],
      "name": "sendKey",
      "outputs": [],
      "stateMutability": "nonpayable",
      "type": "function"
    },
    {
      "inputs": [],
      "name": "sendPayment",
      "outputs": [],
      "stateMutability": "payable",
      "type": "function"
    },
    {
      "inputs": [],
      "name": "sendVendorDisputeSponsorFee",
      "outputs": [],
      "stateMutability": "payable",
      "type": "function"
    },
    {
      "inputs": [],
      "name": "sendVendorSelfDisputeSponsorFee",
      "outputs": [],
      "stateMutability": "payable",
      "type": "function"
    },
    {
      "inputs": [
        {
          "internalType": "address",
          "name": "_newSigner",
          "type": "address"
        }
      ],
      "name": "setVendorSigner",
      "outputs": [],
      "stateMutability": "nonpayable",
      "type": "function"
    },
    {
      "inputs": [],
      "name": "sponsor",
      "outputs": [
        {
          "internalType": "address",
          "name": "",
          "type": "address"
        }
      ],
      "stateMutability": "view",
      "type": "function"
    },
    {
      "inputs": [],
      "name": "sponsorDeposit",
      "outputs": [
        {
          "internalType": "uint256",
          "name": "",
          "type": "uint256"
        }
      ],
      "stateMutability": "view",
      "type": "function"
    },
    {
      "inputs": [],
      "name": "sponsorIsBuyer",
      "outputs": [
        {
          "internalType": "bool",
          "name": "",
          "type": "bool"
        }
      ],
      "stateMutability": "view",
      "type": "function"
    },
    {
      "inputs": [],
      "name": "sponsorIsVendor",
      "outputs": [
        {
          "internalType": "bool",
          "name": "",
          "type": "bool"
        }
      ],
      "stateMutability": "view",
      "type": "function"
    },
    {
      "inputs": [],
      "name": "sponsorTip",
      "outputs": [
        {
          "internalType": "uint256",
          "name": "",
          "type": "uint256"
        }
      ],
      "stateMutability": "view",
      "type": "function"
    },
    {
      "inputs": [],
      "name": "supportsERC4337",
      "outputs": [
        {
          "internalType": "bool",
          "name": "",
          "type": "bool"
        }
      ],
      "stateMutability": "pure",
      "type": "function"
    },
    {
      "inputs": [],
      "name": "svDeposit",
      "outputs": [
        {
          "internalType": "uint256",
          "name": "",
          "type": "uint256"
        }
      ],
      "stateMutability": "view",
      "type": "function"
    },
    {
      "inputs": [],
      "name": "svTip",
      "outputs": [
        {
          "internalType": "uint256",
          "name": "",
          "type": "uint256"
        }
      ],
      "stateMutability": "view",
      "type": "function"
    },
    {
      "inputs": [],
      "name": "timeoutHasPassed",
      "outputs": [
        {
          "internalType": "bool",
          "name": "",
          "type": "bool"
        }
      ],
      "stateMutability": "view",
      "type": "function"
    },
    {
      "inputs": [],
      "name": "timeoutIncrement",
      "outputs": [
        {
          "internalType": "uint256",
          "name": "",
          "type": "uint256"
        }
      ],
      "stateMutability": "view",
      "type": "function"
    },
    {
      "inputs": [
        {
          "components": [
            {
              "internalType": "address",
              "name": "sender",
              "type": "address"
            },
            {
              "internalType": "uint256",
              "name": "nonce",
              "type": "uint256"
            },
            {
              "internalType": "bytes",
              "name": "initCode",
              "type": "bytes"
            },
            {
              "internalType": "bytes",
              "name": "callData",
              "type": "bytes"
            },
            {
              "internalType": "bytes32",
              "name": "accountGasLimits",
              "type": "bytes32"
            },
            {
              "internalType": "uint256",
              "name": "preVerificationGas",
              "type": "uint256"
            },
            {
              "internalType": "bytes32",
              "name": "gasFees",
              "type": "bytes32"
            },
            {
              "internalType": "bytes",
              "name": "paymasterAndData",
              "type": "bytes"
            },
            {
              "internalType": "bytes",
              "name": "signature",
              "type": "bytes"
            }
          ],
          "internalType": "struct PackedUserOperation",
          "name": "userOp",
          "type": "tuple"
        },
        {
          "internalType": "bytes32",
          "name": "userOpHash",
          "type": "bytes32"
        },
        {
          "internalType": "uint256",
          "name": "missingAccountFunds",
          "type": "uint256"
        }
      ],
      "name": "validateUserOp",
      "outputs": [
        {
          "internalType": "uint256",
          "name": "validationData",
          "type": "uint256"
        }
      ],
      "stateMutability": "payable",
      "type": "function"
    },
    {
      "inputs": [],
      "name": "vendor",
      "outputs": [
        {
          "internalType": "address",
          "name": "",
          "type": "address"
        }
      ],
      "stateMutability": "view",
      "type": "function"
    },
    {
      "inputs": [],
      "name": "vendorDisputeSponsor",
      "outputs": [
        {
          "internalType": "address",
          "name": "",
          "type": "address"
        }
      ],
      "stateMutability": "view",
      "type": "function"
    },
    {
      "inputs": [],
      "name": "vendorSigner",
      "outputs": [
        {
          "internalType": "address",
          "name": "",
          "type": "address"
        }
      ],
      "stateMutability": "view",
      "type": "function"
    },
    {
      "inputs": [
        {
          "internalType": "address payable",
          "name": "_to",
          "type": "address"
        },
        {
          "internalType": "uint256",
          "name": "_amount",
          "type": "uint256"
        }
      ],
      "name": "withdrawFromEntryPoint",
      "outputs": [],
      "stateMutability": "nonpayable",
      "type": "function"
    },
    {
      "stateMutability": "payable",
      "type": "receive"
    }
  ],
  "bytecode": "0x60a0601f6130e738819003918201601f19168301916001600160401b038311848410176100ff57808492610160946040528339810103126100fa57806100476100aa92610115565b9061005460208201610115565b61006060408301610115565b6060830151608084015160a08501519060c08601519260e0870151946100896101008901610129565b966100a461014061009d6101208c01610129565b9a01610115565b9961015d565b604051612cb19081610436823960805181818161047e0152818161062d015281816109a601528181610f8e01528181611170015281816112850152818161133b0152818161204101526125f10152f35b600080fd5b634e487b7160e01b600052604160045260246000fd5b51906001600160a01b03821682036100fa57565b519063ffffffff821682036100fa57565b9190820180921161014757565b634e487b7160e01b600052601160045260246000fd5b999096939894999795929760018060a01b031680156103d6576080526001600160a01b0381166103d15750855b60018060a01b031660018060a01b03196000541617600055346013553360018060a01b0319600654161760065560018060a01b0316948560018060a01b0319600454161760045560018060a01b0316978860018060a01b0319600554161760055586600b5587600c55600d55600e55600f5563ffffffff67ffffffff000000006010549360201b16911691828260018060401b031983161717601055341561038e5750505033146102ba5750506005341061027557346013553314610254575b61025261041b565b565b6010805461ffff60501b19166b03010000000000000000000017905561024a565b60405162461bcd60e51b815260206004820152601e60248201527f4e6f7420656e6f756768206d6f6e657920746f20636f766572206665657300006044820152606490fd5b9091506102c7828261013a565b60058101809111610147573410610339576010805462ff00ff60481b19166b02000100000000000000000017905561030090829061013a565b90816014556017553403348111610147576013556009805460ff60a01b1916600160a01b179055600e54610334904261013a565b601a55565b60405162461bcd60e51b815260206004820152602760248201527f4e6f7420656e6f756768206d6f6e657920666f7220667573656420533d42206460448201526665706f7369747360c81b6064820152608490fd5b60ff60581b196001600160481b03199091169091179091176801000000000000000017166b0100000000000000000000001760105550610252925061041b915050565b61018a565b60405162461bcd60e51b815260206004820152601360248201527f456e747279506f696e74207265717569726564000000000000000000000000006044820152606490fd5b6009805460ff60a01b19169055600e54610334904261013a56fe6080604052600436101561001b575b361561001957600080fd5b005b60003560e01c806312c0f221146102bc5780631303a484146103b15780631385a6f2146103ac57806319822f7c146103a75780631b3ba101146103a25780631dd339ee1461039d57806330f7bef214610398578063312d2bde14610393578063337d7a5c1461038e5780633943380c146103895780634010b84e146103845780634018fe3a1461037f578063425d519e1461037a57806342ecd2fb1461037557806347e1da2a14610370578063582f05031461036b5780635c8cf75014610366578063609b6d9214610361578063651b72cc1461035c57806366fafd38146103575780636720ceb1146103525780636c611f9f1461034d5780637150d8ae1461034857806377c9366214610343578063788e26e71461033e5780638baf2250146103395780638e723d7e14610334578063930fc2161461032f5780639367725f1461032a5780639d3ad91a14610325578063a057958714610320578063a4ea32d91461031b578063aeb77c3b146102d0578063afe0104314610316578063affed0e014610311578063b0d691fe1461030c578063b273e01414610307578063b3ae1d2c14610302578063b55f2134146102fd578063b61d27f6146102f8578063ba5f430e146102f3578063bc7899e2146102ee578063bec67887146102e9578063bef95898146102e4578063c399ec88146102df578063c7d76308146102da578063cb102941146102d5578063cd1615c6146102d0578063d1b92e43146102cb578063d1fc8cf3146102c6578063da5982b0146102c1578063df209f8c146102bc578063e5d9f484146102b7578063ed2c5888146102b2578063f0a61993146102ad578063f18b59d9146102a8578063f5c407ad146102a35763fab427d80361000e5761150c565b6114ee565b6114d0565b6114b2565b611494565b611476565b6103c6565b611450565b611437565b611413565b610f0f565b6113f2565b611301565b611259565b611230565b61121a565b6111fc565b6111d9565b611127565b611021565b610fdb565b610fbd565b610f78565b610f5a565b610f2d565b610ee9565b610ecb565b610e9d565b610e7f565b610e59565b610e1e565b610df8565b610dda565b610db1565b610d88565b610b86565b610b2f565b610b06565b610ae8565b610ac2565b610aa9565b610a95565b61092c565b6108d3565b6108aa565b61088c565b610863565b610839565b610779565b610747565b610702565b6106c5565b610609565b610448565b61041f565b6103e2565b60009103126103c157565b600080fd5b346103c15760003660031901126103c157602060405160018152f35b346103c15760003660031901126103c1576020600f54604051908152f35b6001600160a01b031690565b6001600160a01b03909116815260200190565b346103c15760003660031901126103c1576005546040516001600160a01b039091168152602090f35b60603660031901126103c1576004356001600160401b0381116103c15761012060031982360301126103c15760243590604435917f00000000000000000000000000000000000000000000000000000000000000006001600160a01b031691338390036105ce576105056104e361050a936104dd6024850135946104cf600154871461152a565b610104810190600401611562565b91612213565b600280546001600160a01b0319166001600160a01b0392909216919091179055565b600355565b61051d6105186001546115aa565b600155565b81610534575b6040516000815280602081015b0390f35b61055361054e61054a60105460ff9060401c1690565b1590565b6115be565b803b156103c1576000604051809263b760faf960e01b825281858161057b306004830161040c565b03925af180156105c9576105ae575b506040519081523390600080516020612c8583398151915290602090a23880610523565b806105bd60006105c393611616565b806103b6565b3861058a565b61163e565b60405162461bcd60e51b8152602060048201526013602482015272139bdd08199c9bdb48115b9d1c9e541bda5b9d606a1b6044820152606490fd5b60003660031901126103c15761062b61054e61054a60105460ff9060401c1690565b7f00000000000000000000000000000000000000000000000000000000000000006001600160a01b0316803b156103c1576000604051809263b760faf960e01b8252818061067c306004830161040c565b039134905af180156105c9576106b0575b6040513481523390600080516020612c858339815191529080602081015b0390a2005b806105bd60006106bf93611616565b3861068d565b346103c15760003660031901126103c1576012546040805191901b6001600160801b0319168152602090f35b6001600160a01b038116036103c157565b346103c15760203660031901126103c1576020610729600435610724816106f1565b61164a565b604051908152f35b634e487b7160e01b600052602160045260246000fd5b346103c15760003660031901126103c15760ff60105460581c166040516004821015610774576020918152f35b610731565b346103c15760203660031901126103c157600435610796816106f1565b6107ab60018060a01b036005541633146116bb565b6001600160a01b031680156107fc576000548160018060a01b0382167fbf6953d691bdd10faf194bb9fdabd34fab7cd63f6cc81bb9afdc89f48892f8a3600080a36001600160a01b03191617600055005b60405162461bcd60e51b81526020600482015260156024820152745369676e65722063616e6e6f74206265207a65726f60581b6044820152606490fd5b346103c15760003660031901126103c1576020600a5460801b6040519060018060801b0319168152f35b346103c15760003660031901126103c1576009546040516001600160a01b039091168152602090f35b346103c15760003660031901126103c1576020601a54604051908152f35b346103c15760003660031901126103c1576012546040516001600160401b039091168152602090f35b346103c15760003660031901126103c1576008546040516001600160a01b039091168152602090f35b9181601f840112156103c1578235916001600160401b0383116103c1576020808501948460051b0101116103c157565b346103c15760603660031901126103c1576004356001600160401b0381116103c15761095c9036906004016108fc565b906024356001600160401b0381116103c15761097c9036906004016108fc565b90929091906044356001600160401b0381116103c1576109a09036906004016108fc565b949091337f00000000000000000000000000000000000000000000000000000000000000006001600160a01b0316148015610a81575b6109df906116f5565b84811480610a78575b15610a385760005b8181106109f957005b80610a32610a12610a0d600194868a611751565b611766565b610a1d838a88611751565b3590610a2a848c8a611773565b9290916122d4565b016109f0565b60405162461bcd60e51b81526020600482015260186024820152774d69736d617463686564206261746368206c656e6774687360401b6044820152606490fd5b508581146109e8565b506000546001600160a01b031633146109d6565b60003660031901126103c157610019611839565b346103c15760003660031901126103c15761001961194e565b346103c15760003660031901126103c157602060ff60105460601c166040519015158152f35b346103c15760003660031901126103c1576020601554604051908152f35b346103c15760003660031901126103c1576007546040516001600160a01b039091168152602090f35b60003660031901126103c157610019611ac8565b602435906001600160401b03821682036103c157565b600435906001600160401b03821682036103c157565b604435906001600160801b0319821682036103c157565b346103c15760603660031901126103c1576004357f53281975a410d2d7b6a67025546364678fc9b157c95eee107ab987f5f14c91c1610bc3610b43565b610bcb610b6f565b90610cb7610bdf60095460ff9060a01c1690565b610be881610f23565b610c1a811560105492610bff8460ff9060481c1690565b9081610d74575b5080610d5e575b8115610d56575b50611c7b565b610c2d610c28600654610400565b610400565b33148015610d3b575b610c3f90611cc7565b610c666001600160401b038416610c57811515611d0c565b60016001603d1b031015611d54565b63ffffffff610caf610ca6610c9c610c7d8761278d565b63ffffffff602087901c1690610c969086168214611d9d565b8761282d565b9363ffffffff1690565b63ffffffff1690565b911614611de5565b6010805460ff60601b1916600160601b179055610cd384601155565b601280546001600160401b03929092166001600160c01b03199092168217604084811c600160401b600160c01b03169190911790915560105481519283526001600160801b0319909316602083015263ffffffff9092169181019190915280606081016106ab565b50610c3f610d4d610c28600554610400565b33149050610c36565b905038610c14565b50610d6d610c28600654610400565b3314610c0d565b60019150610d8181610f23565b1438610c06565b346103c15760003660031901126103c1576004546040516001600160a01b039091168152602090f35b346103c15760003660031901126103c1576006546040516001600160a01b039091168152602090f35b346103c15760003660031901126103c1576020601354604051908152f35b346103c15760003660031901126103c157602060ff60105460481c166040519015158152f35b346103c15760203660031901126103c1576020610e4b610e3c610b59565b610e458161278d565b9061282d565b63ffffffff60405191168152f35b346103c15760003660031901126103c157602063ffffffff601054821c16604051908152f35b346103c15760003660031901126103c1576020601654604051908152f35b346103c15760203660031901126103c1576004356001600160801b0319811681036103c15761001990611e31565b346103c15760003660031901126103c1576020601454604051908152f35b346103c15760003660031901126103c157602060ff60105460501c166040519015158152f35b60003660031901126103c157610019611ecc565b6006111561077457565b346103c15760003660031901126103c15760ff60095460a01c166040516006821015610774576020918152f35b346103c15760003660031901126103c1576020600154604051908152f35b346103c15760003660031901126103c1576040517f00000000000000000000000000000000000000000000000000000000000000006001600160a01b03168152602090f35b346103c15760003660031901126103c1576020601754604051908152f35b346103c15760003660031901126103c157610019611f7a565b9181601f840112156103c1578235916001600160401b0383116103c157602083818601950101116103c157565b60203660031901126103c1576004356001600160401b0381116103c15761106d611052611073923690600401610ff4565b91906110656110603361164a565b612977565b923691612174565b90612aaa565b6004546001600160a01b039081169116036110d657611091336128b2565b61109c600454610400565b60405134815233916001600160a01b0316907fcb21ab7c0572ee983cc4891989b36ee055a6774617ea8bfb44198e13681b314390602090a3005b60405162461bcd60e51b815260206004820152602360248201527f496e76616c696420627579657220756e686170707920617574686f72697a617460448201526234b7b760e91b6064820152608490fd5b346103c15760603660031901126103c157600435611144816106f1565b602435604435916001600160401b0383116103c15761116a6111ae933690600401610ff4565b929091337f00000000000000000000000000000000000000000000000000000000000000006001600160a01b03161480156111c5575b6111a9906116f5565b6122d4565b600280546001600160a01b03191690556000600355005b506000546001600160a01b031633146111a0565b346103c15760203660031901126103c1576020610e4b6111f7610b59565b61278d565b346103c15760003660031901126103c1576020600b54604051908152f35b60003660031901126103c157610019333361250b565b346103c15760003660031901126103c1576000546040516001600160a01b039091168152602090f35b346103c15760003660031901126103c1576040516370a0823160e01b81523060048201526020816024817f00000000000000000000000000000000000000000000000000000000000000006001600160a01b03165afa80156105c957610530916000916112d2575b506040519081529081906020820190565b6112f4915060203d6020116112fa575b6112ec8183611616565b810190611fe0565b386112c1565b503d6112e2565b346103c157600060403660031901126113ef57600435611320816106f1565b6024359061133960018060a01b036005541633146116bb565b7f00000000000000000000000000000000000000000000000000000000000000006001600160a01b0316803b156113ed5783604051809263040b850f60e31b825281838161138b898960048401611fef565b03925af180156105c9576113c7575b506040519182526001600160a01b031690600080516020612c458339815191529080602081015b0390a280f35b836113e5600080516020612c4583398151915293956113c193611616565b93915061139a565b835b80fd5b346103c15760003660031901126103c1576020601a54421015604051908152f35b346103c15760003660031901126103c157602063ffffffff60105416604051908152f35b346103c15760003660031901126103c1576100196121ab565b346103c15760003660031901126103c157602060ff60105460401c166040519015158152f35b346103c15760003660031901126103c1576020600d54604051908152f35b346103c15760003660031901126103c1576020601854604051908152f35b346103c15760003660031901126103c1576020601954604051908152f35b346103c15760003660031901126103c1576020600e54604051908152f35b346103c15760003660031901126103c1576020601154604051908152f35b346103c15760003660031901126103c1576020600c54604051908152f35b1561153157565b60405162461bcd60e51b8152602060048201526009602482015268426164206e6f6e636560b81b6044820152606490fd5b903590601e19813603018212156103c157018035906001600160401b0382116103c1576020019181360383136103c157565b634e487b7160e01b600052601160045260246000fd5b60001981146115b95760010190565b611594565b156115c557565b60405162461bcd60e51b815260206004820152601360248201527214dc1bdb9cdbdc9a5b99c8191a5cd8589b1959606a1b6044820152606490fd5b634e487b7160e01b600052604160045260246000fd5b601f909101601f19168101906001600160401b0382119082101761163957604052565b611600565b6040513d6000823e3d90fd5b600454600f5460405170534f585f42555945525f554e484150505960781b6020820190815246603183015230606090811b60518401526001600160601b031994811b851660658401529490941b9092166079830152608d8083019190915281526116b560ad82611616565b51902090565b156116c257565b60405162461bcd60e51b815260206004820152600b60248201526a27b7363c903b32b73237b960a91b6044820152606490fd5b156116fc57565b60405162461bcd60e51b81526020600482015260176024820152762737ba1030baba3437b934bd32b21032bc32b1baba37b960491b6044820152606490fd5b634e487b7160e01b600052603260045260246000fd5b91908110156117615760051b0190565b61173b565b35611770816106f1565b90565b908210156117615761178a9160051b810190611562565b9091565b1561179557565b60405162461bcd60e51b815260206004820152600b60248201526a57726f6e6720737461746560a81b6044820152606490fd5b156117cf57565b60405162461bcd60e51b8152602060048201526016602482015275125b9d985b1a5908155cd95c93dc0818dbdb9d195e1d60521b6044820152606490fd5b6060906020815260116020820152702ab732bc3832b1ba32b21039b2b73232b960791b60408201520190565b60018060a01b0360055416611861600360ff60095460a01c1661185b81610f23565b1461178e565b8033146118a75730331461188c5760405162461bcd60e51b8152806118886004820161180d565b0390fd5b61189861189d9161236e565b6117c8565b6118a56118ac565b565b506118a55b6005546118c2906001600160a01b03168061250b565b600554600954604080513481526001600160a01b03928316602082015291909216917fc10d413cfeba0d47f57d42ef78bf520586202009287a91b3046c14b38824261b91a2565b1561191057565b60405162461bcd60e51b8152602060048201526016602482015275151a5b595bdd5d081a185cc81b9bdd081c185cdcd95960521b6044820152606490fd5b61196261195d601a5442101590565b611909565b60095460a01c60ff1661197481610f23565b806119b157506000808080611990610c28610c28600654610400565b47908282156119a8575bf1156105c9576118a56126f5565b506108fc61199a565b6119ba81610f23565b60018103611a0a575060008080806119d9610c28610c28600454610400565b600b5490828215611a01575bf1156105c9576000808080611990610c28610c28600654610400565b506108fc6119e5565b80611a16600392610f23565b14611a815760405162461bcd60e51b815260206004820152603860248201527f4e6f7420696e206120737461746520696e20776869636820746865207472616e6044820152771cd858dd1a5bdb8818d85b8818994818d85b98d95b1b195960421b6064820152608490fd5b6000808080611a97610c28610c28600754610400565b60155490828215611abf575bf1156105c95760008080806119d9610c28610c28600454610400565b506108fc611aa3565b60018060a01b0360045416611aee60ff60095460a01c16611ae881610f23565b1561178e565b803314611b2957303314611b155760405162461bcd60e51b8152806118886004820161180d565b611898611b219161236e565b6118a5611bc1565b506118a5611bc1565b600a019081600a116115b957565b919082018092116115b957565b15611b5457565b60405162461bcd60e51b815260206004820152601a6024820152795061796d656e74206465706f73697420697320746f6f206c6f7760301b6044820152606490fd5b6000198101919082116115b957565b6009198101919082116115b957565b919082039182116115b957565b60105460401c60ff1615611c6757600b545b611bdf81341015611b4d565b611be881601455565b60105460401c60ff1615611c5057611c006000601755565b803411611c11575b506118a561271b565b600080808093611c32611c2b610c28610c28600454610400565b9134611bb4565b90828215611c47575bf1156105c95738611c08565b506108fc611c3b565b611c00611c62601454600b5490611bb4565b601755565b611c76600b54600c5490611b40565b611bd3565b15611c8257565b60405162461bcd60e51b815260206004820152601f60248201527f436f6e666967757265206265666f7265207061796d656e74206f72206b6579006044820152606490fd5b15611cce57565b60405162461bcd60e51b815260206004820152601660248201527527b7363c9039b837b739b7b91037b9103b32b73237b960511b6044820152606490fd5b15611d1357565b60405162461bcd60e51b8152602060048201526019602482015278141b185a5b9d195e1d081b195b99dd1a081c995c5d5a5c9959603a1b6044820152606490fd5b15611d5b57565b60405162461bcd60e51b815260206004820152601a602482015279506c61696e74657874206c656e67746820746f6f206c6172676560301b6044820152606490fd5b15611da457565b60405162461bcd60e51b81526020600482015260196024820152780a0d8c2d2dce8caf0e840d8cadccee8d040dad2e6dac2e8c6d603b1b6044820152606490fd5b15611dec57565b60405162461bcd60e51b815260206004820152601d60248201527f48617264636f646564206761746520636f756e74206d69736d617463680000006044820152606490fd5b60018060a01b036005541690611e54600160ff60095460a01c1661185b81610f23565b813314611e8f57303314611e7b5760405162461bcd60e51b8152806118886004820161180d565b611e8a6118986118a59361236e565b611e95565b6118a591505b60801c60018060801b0319600a541617600a55600160a11b60ff60a01b196009541617600955600e5442018042116115b957601a55565b60018060a01b0360045416611eee600260ff60095460a01c1661185b81610f23565b803314611f2957303314611f155760405162461bcd60e51b8152806118886004820161180d565b611898611f219161236e565b6118a5611f2e565b506118a55b600454611f43906001600160a01b03166128b2565b60018060a01b03600454167fedce933b887f731698d7ecbdd391e8e28e9ca4557310be8268efa5cd4d1a5ad06020604051348152a2565b60018060a01b0360045416611f9c600260ff60095460a01c1661185b81610f23565b803314611fd757303314611fc35760405162461bcd60e51b8152806118886004820161180d565b611898611fcf9161236e565b6118a561200a565b506118a561200a565b908160209103126103c1575190565b6001600160a01b039091168152602081019190915260400190565b6000808080612020610c28610c28600554610400565b600b5490828215612150575bf1156105c9576040516370a0823160e01b81527f00000000000000000000000000000000000000000000000000000000000000006001600160a01b0316906020818061207b306004830161040c565b0381855afa9081156105c957600091612131575b506010546120a19060401c60ff161590565b80612128575b6120c4575b50506000808080611990610c28610c28600654610400565b6120d2610c28600654610400565b90823b156103c1576120fe926000928360405180968195829463040b850f60e31b845260048401611fef565b03925af180156105c957612113575b806120ac565b806105bd600061212293611616565b3861210d565b508015156120a7565b61214a915060203d6020116112fa576112ec8183611616565b3861208f565b506108fc61202c565b6001600160401b03811161163957601f01601f191660200190565b92919261218082612159565b9161218e6040519384611616565b8294818452818301116103c1578281602093846000960137010152565b6009546001600160a01b038116906121cf9060049060a01c60ff1661185b81610f23565b80331461220a573033146121f65760405162461bcd60e51b8152806118886004820161180d565b6118986122029161236e565b6118a56126f5565b506118a56126f5565b612224929161106561106d92612977565b6000546001600160a01b038281169116811490811561229c575b8115612287575b501561224e5790565b60405162461bcd60e51b8152602060048201526011602482015270496e76616c6964207369676e617475726560781b6044820152606490fd5b6004546001600160a01b031614905038612245565b6005546001600160a01b03168114915061223e565b60005b8381106122c45750506000910152565b81810151838201526020016122b4565b90926000938493826040519384928337810185815203925af13d156123645761231d3d61230081612159565b9061230e6040519283611616565b81523d6000602083013e612b9e565b90156123265750565b6044604051809262461bcd60e51b82526020600483015261235681518092816024860152602086860191016122b1565b601f01601f19168101030190fd5b61231d6060612b9e565b60015480156124215761238360035491611b96565b0361241b57612396610c28600554610400565b6001600160a01b03909116908181146123df57506123b8610c28600454610400565b8091146123c55750600090565b6002546001600160a01b03906123da90610400565b161490565b90506123ec600254610400565b906123fb610c28600054610400565b6001600160a01b0390921691821491821561241557505090565b14919050565b50600090565b5050600090565b1561242f57565b60405162461bcd60e51b815260206004820152602d60248201527f43616e6e6f742072756e20746869732066756e6374696f6e20696e207468652060448201526c63757272656e7420737461746560981b6064820152608490fd5b1561249157565b60a460405162461bcd60e51b81526020600482015260446024820152600080516020612c6583398151915260448201527f76657220646973707574652066656573202b20746970202b20616772656564506064820152637269636560e01b6084820152fd5b908160209103126103c15751611770816106f1565b90602090612533600361252460095460ff9060a01c1690565b61252d81610f23565b14612428565b61255561254d612544600d54611b32565b600b5490611b40565b34101561248a565b600880546001600160a01b0319166001600160a01b03851617905561257934601655565b61259661259161258834611ba5565b600b5490611bb4565b601955565b6010546126706125b4602083901c63ffffffff169263ffffffff1690565b92600f54956125c4600454610400565b6125cf600554610400565b6125da600754610400565b604051638f52184760e01b81526001600160a01b037f00000000000000000000000000000000000000000000000000000000000000008116600483015230602483015263ffffffff9889166044830152979098166064890152608488019990995290851660a4870152841660c486015295831660e485015294821661010484015293166101248201529182908190610144820190565b038173__$e840f9821dab6b702f8ff665e4ecc4871b$__5af480156105c9576126be916000916126c6575b50600980546001600160a01b0319166001600160a01b0392909216919091179055565b6118a5612741565b6126e8915060203d6020116126ee575b6126e08183611616565b8101906124f6565b3861269b565b503d6126d6565b6009805460ff60a01b1916600560a01b179055600e54429081019081106115b957601a55565b6009805460ff60a01b1916600160a01b179055600e54429081019081106115b957601a55565b6009805460ff60a01b1916600160a21b179055600e54429081019081106115b957601a55565b6009805460ff60a01b1916600360a01b179055600e54429081019081106115b957601a55565b6001600160401b03166127a1811515611d0c565b603f81018091116115b95760061c63ffffffff81116127c35763ffffffff1690565b60405162461bcd60e51b815260206004820152600f60248201526e546f6f206d616e7920626c6f636b7360881b6044820152606490fd5b60011b906401fffffffe63fffffffe8316921682036115b957565b63ffffffff60059116019063ffffffff82116115b957565b637ffffffb63ffffffff83161161287c576037603f919091161161285c57612857611770916127fa565b612815565b63ffffffff61286c6008926127fa565b160163ffffffff81116115b95790565b60405162461bcd60e51b815260206004820152600e60248201526d546f6f206d616e7920676174657360901b6044820152606490fd5b60ff60095460a01c1660068110156107745760026128d09114612428565b600d54600a0180600a116115b957341061292557600780546001600160a01b0319166001600160a01b0390921691909117905561290c34601555565b61291d61291834611ba5565b601855565b6118a5612767565b60405162461bcd60e51b81526020600482015260366024820152600080516020612c65833981519152604482015275076657220646973707574652066656573202b207469760541b6064820152608490fd5b60405160208101917b0ca2ba3432b932bab69029b4b3b732b21026b2b9b9b0b3b29d05199960211b8352603c820152603c81526116b5605c82611616565b156129bc57565b60405162461bcd60e51b815260206004820152602260248201527f45434453413a20696e76616c6964207369676e6174757265202776272076616c604482015261756560f01b6064820152608490fd5b15612a1357565b60405162461bcd60e51b815260206004820152602260248201527f45434453413a20696e76616c6964207369676e6174757265202773272076616c604482015261756560f01b6064820152608490fd5b15612a6a57565b60405162461bcd60e51b815260206004820152601860248201527745434453413a20696e76616c6964207369676e617475726560401b6044820152606490fd5b6041825103612b595781600091612b2a6020809501519260606040820151910151851a93601b85148015612b4f575b612ae2906129b5565b612b046fa2a8918ca85bafe22016d0b997e4df60600160ff1b03831115612a0c565b604051948594859094939260ff6060936080840197845216602083015260408201520152565b838052039060015afa156105c9576000516117706001600160a01b0382161515612a63565b50601c8514612ad9565b60405162461bcd60e51b815260206004820152601f60248201527f45434453413a20696e76616c6964207369676e6174757265206c656e677468006044820152606490fd5b6044815110612c1a5760048101518101602481019190602090829003126103c1576024810151906001600160401b0382116103c15701816043820112156103c1576024810151612bed81612159565b92612bfb6040519485611616565b818452604483830101116103c1576117709160446020850191016122b1565b50604051612c29604082611616565b600b81526a10d85b1b0819985a5b195960aa1b60208201529056fecae8414aeb02c2a7a7089c22ed61def4882bf260298b39ff6ba047ef80a2f3794e6f7420656e6f756768206d6f6e6579206465706f736974656420746f20636f9e2d0dc81eb38ff1d67af62923ffb2cbf68cbcc3235b24fe71e932fcff0c77d6a164736f6c634300081c000a",
  "linkReferences": {
    "contracts/DisputeDeployer.sol": {
      "DisputeDeployer": [
        {
          "length": 20,
          "start": 10922
        }
      ]
    }
  },
  "deployedLinkReferences": {
    "contracts/DisputeDeployer.sol": {
      "DisputeDeployer": [
        {
          "length": 20,
          "start": 9844
        }
      ]
    }
  }
}